{
  "contracts/libraries/errorCodes/GovernanceErrorCodes.sol": {
    "GovernanceErrorCodes": {
      "abi": [
        {
          "inputs": [],
          "name": "GOVERNANCE_ONLY_FACTORY_ALLOWED",
          "outputs": [
            {
              "internalType": "bytes32",
              "name": "",
              "type": "bytes32"
            }
          ],
          "stateMutability": "view",
          "type": "function"
        }
      ],
      "devdoc": {
        "kind": "dev",
        "methods": {},
        "version": 1
      },
      "evm": {
        "bytecode": {
          "linkReferences": {},
          "object": "60a6610038600b82828239805160001a607314602b57634e487b7160e01b600052600060045260246000fd5b30600052607381538281f3fe730000000000000000000000000000000000000000301460806040526004361060335760003560e01c80634ce9164d146038575b600080fd5b605e7f323030000000000000000000000000000000000000000000000000000000000081565b60405190815260200160405180910390f3fea2646970667358221220181fb9ad7aaf63a8e4738338bfb34b12b488b34d6b968bf1a88312e406e3cf5f64736f6c634300080d0033",
          "opcodes": "PUSH1 0xA6 PUSH2 0x38 PUSH1 0xB DUP3 DUP3 DUP3 CODECOPY DUP1 MLOAD PUSH1 0x0 BYTE PUSH1 0x73 EQ PUSH1 0x2B JUMPI PUSH4 0x4E487B71 PUSH1 0xE0 SHL PUSH1 0x0 MSTORE PUSH1 0x0 PUSH1 0x4 MSTORE PUSH1 0x24 PUSH1 0x0 REVERT JUMPDEST ADDRESS PUSH1 0x0 MSTORE PUSH1 0x73 DUP2 MSTORE8 DUP3 DUP2 RETURN INVALID PUSH20 0x0 ADDRESS EQ PUSH1 0x80 PUSH1 0x40 MSTORE PUSH1 0x4 CALLDATASIZE LT PUSH1 0x33 JUMPI PUSH1 0x0 CALLDATALOAD PUSH1 0xE0 SHR DUP1 PUSH4 0x4CE9164D EQ PUSH1 0x38 JUMPI JUMPDEST PUSH1 0x0 DUP1 REVERT JUMPDEST PUSH1 0x5E PUSH32 0x3230300000000000000000000000000000000000000000000000000000000000 DUP2 JUMP JUMPDEST PUSH1 0x40 MLOAD SWAP1 DUP2 MSTORE PUSH1 0x20 ADD PUSH1 0x40 MLOAD DUP1 SWAP2 SUB SWAP1 RETURN INVALID LOG2 PUSH5 0x6970667358 0x22 SLT KECCAK256 XOR 0x1F 0xB9 0xAD PUSH27 0xAF63A8E4738338BFB34B12B488B34D6B968BF1A88312E406E3CF5F PUSH5 0x736F6C6343 STOP ADDMOD 0xD STOP CALLER "
        },
        "gasEstimates": {
          "creation": {
            "codeDepositCost": "33200",
            "executionCost": "118",
            "totalCost": "33318"
          },
          "external": {
            "GOVERNANCE_ONLY_FACTORY_ALLOWED()": "145"
          }
        },
        "methodIdentifiers": {
          "GOVERNANCE_ONLY_FACTORY_ALLOWED()": "4ce9164d"
        }
      },
      "storageLayout": {
        "storage": [],
        "types": null
      },
      "userdoc": {
        "kind": "user",
        "methods": {},
        "version": 1
      }
    }
  }
}