{
  "test/contract-mocks/factory/MockEndPoint.sol": {
    "MockEndPoint": {
      "abi": [
        {
          "inputs": [
            {
              "internalType": "address",
              "name": "f",
              "type": "address"
            }
          ],
          "stateMutability": "nonpayable",
          "type": "constructor"
        },
        {
          "anonymous": false,
          "inputs": [
            {
              "indexed": true,
              "internalType": "uint256",
              "name": "i",
              "type": "uint256"
            }
          ],
          "name": "AddedOne",
          "type": "event"
        },
        {
          "anonymous": false,
          "inputs": [
            {
              "indexed": true,
              "internalType": "uint256",
              "name": "i",
              "type": "uint256"
            }
          ],
          "name": "AddedTwo",
          "type": "event"
        },
        {
          "anonymous": false,
          "inputs": [
            {
              "indexed": true,
              "internalType": "bool",
              "name": "lock",
              "type": "bool"
            }
          ],
          "name": "UpgradeLock",
          "type": "event"
        },
        {
          "inputs": [],
          "name": "addOne",
          "outputs": [],
          "stateMutability": "nonpayable",
          "type": "function"
        },
        {
          "inputs": [],
          "name": "addTwo",
          "outputs": [],
          "stateMutability": "nonpayable",
          "type": "function"
        },
        {
          "inputs": [],
          "name": "factory",
          "outputs": [
            {
              "internalType": "address",
              "name": "",
              "type": "address"
            }
          ],
          "stateMutability": "view",
          "type": "function"
        },
        {
          "inputs": [],
          "name": "i",
          "outputs": [
            {
              "internalType": "uint256",
              "name": "",
              "type": "uint256"
            }
          ],
          "stateMutability": "view",
          "type": "function"
        },
        {
          "inputs": [],
          "name": "owner",
          "outputs": [
            {
              "internalType": "address",
              "name": "",
              "type": "address"
            }
          ],
          "stateMutability": "view",
          "type": "function"
        }
      ],
      "devdoc": {
        "custom:salt": "MockEndPoint",
        "kind": "dev",
        "methods": {},
        "version": 1
      },
      "evm": {
        "bytecode": {
          "linkReferences": {},
          "object": "60a060405234801561001057600080fd5b506040516102c63803806102c683398101604081905261002f91610040565b6001600160a01b0316608052610070565b60006020828403121561005257600080fd5b81516001600160a01b038116811461006957600080fd5b9392505050565b60805161023c61008a600039600060cd015261023c6000f3fe608060405234801561001057600080fd5b50600436106100675760003560e01c80638da5cb5b116100505780638da5cb5b1461007e578063c45a0155146100c8578063e5aa3d58146100ef57600080fd5b80634d47524e1461006c5780636057d3ee14610076575b600080fd5b610074610106565b005b610074610144565b60005461009e9073ffffffffffffffffffffffffffffffffffffffff1681565b60405173ffffffffffffffffffffffffffffffffffffffff90911681526020015b60405180910390f35b61009e7f000000000000000000000000000000000000000000000000000000000000000081565b6100f860015481565b6040519081526020016100bf565b6001546101149060026101b6565b60018190556040517fbfce3a5a2a77b031b0a1ccac19738da9dec550c09b2f06f20fb4952517aef5bd90600090a2565b60018054906000610154836101ce565b90915550506001546040517f395a766f999fe60fe2f05f4b28cac630e02ee29e14a848b81a7fd5ae522bc5be90600090a2565b7f4e487b7100000000000000000000000000000000000000000000000000000000600052601160045260246000fd5b600082198211156101c9576101c9610187565b500190565b60007fffffffffffffffffffffffffffffffffffffffffffffffffffffffffffffffff82036101ff576101ff610187565b506001019056fea264697066735822122029824d1ca0a5b0c1cf0be66e097cf90480cef206d5eed642c1f48c0106a76d0a64736f6c634300080d0033",
          "opcodes": "PUSH1 0xA0 PUSH1 0x40 MSTORE CALLVALUE DUP1 ISZERO PUSH2 0x10 JUMPI PUSH1 0x0 DUP1 REVERT JUMPDEST POP PUSH1 0x40 MLOAD PUSH2 0x2C6 CODESIZE SUB DUP1 PUSH2 0x2C6 DUP4 CODECOPY DUP2 ADD PUSH1 0x40 DUP2 SWAP1 MSTORE PUSH2 0x2F SWAP2 PUSH2 0x40 JUMP JUMPDEST PUSH1 0x1 PUSH1 0x1 PUSH1 0xA0 SHL SUB AND PUSH1 0x80 MSTORE PUSH2 0x70 JUMP JUMPDEST PUSH1 0x0 PUSH1 0x20 DUP3 DUP5 SUB SLT ISZERO PUSH2 0x52 JUMPI PUSH1 0x0 DUP1 REVERT JUMPDEST DUP2 MLOAD PUSH1 0x1 PUSH1 0x1 PUSH1 0xA0 SHL SUB DUP2 AND DUP2 EQ PUSH2 0x69 JUMPI PUSH1 0x0 DUP1 REVERT JUMPDEST SWAP4 SWAP3 POP POP POP JUMP JUMPDEST PUSH1 0x80 MLOAD PUSH2 0x23C PUSH2 0x8A PUSH1 0x0 CODECOPY PUSH1 0x0 PUSH1 0xCD ADD MSTORE PUSH2 0x23C PUSH1 0x0 RETURN INVALID PUSH1 0x80 PUSH1 0x40 MSTORE CALLVALUE DUP1 ISZERO PUSH2 0x10 JUMPI PUSH1 0x0 DUP1 REVERT JUMPDEST POP PUSH1 0x4 CALLDATASIZE LT PUSH2 0x67 JUMPI PUSH1 0x0 CALLDATALOAD PUSH1 0xE0 SHR DUP1 PUSH4 0x8DA5CB5B GT PUSH2 0x50 JUMPI DUP1 PUSH4 0x8DA5CB5B EQ PUSH2 0x7E JUMPI DUP1 PUSH4 0xC45A0155 EQ PUSH2 0xC8 JUMPI DUP1 PUSH4 0xE5AA3D58 EQ PUSH2 0xEF JUMPI PUSH1 0x0 DUP1 REVERT JUMPDEST DUP1 PUSH4 0x4D47524E EQ PUSH2 0x6C JUMPI DUP1 PUSH4 0x6057D3EE EQ PUSH2 0x76 JUMPI JUMPDEST PUSH1 0x0 DUP1 REVERT JUMPDEST PUSH2 0x74 PUSH2 0x106 JUMP JUMPDEST STOP JUMPDEST PUSH2 0x74 PUSH2 0x144 JUMP JUMPDEST PUSH1 0x0 SLOAD PUSH2 0x9E SWAP1 PUSH20 0xFFFFFFFFFFFFFFFFFFFFFFFFFFFFFFFFFFFFFFFF AND DUP2 JUMP JUMPDEST PUSH1 0x40 MLOAD PUSH20 0xFFFFFFFFFFFFFFFFFFFFFFFFFFFFFFFFFFFFFFFF SWAP1 SWAP2 AND DUP2 MSTORE PUSH1 0x20 ADD JUMPDEST PUSH1 0x40 MLOAD DUP1 SWAP2 SUB SWAP1 RETURN JUMPDEST PUSH2 0x9E PUSH32 0x0 DUP2 JUMP JUMPDEST PUSH2 0xF8 PUSH1 0x1 SLOAD DUP2 JUMP JUMPDEST PUSH1 0x40 MLOAD SWAP1 DUP2 MSTORE PUSH1 0x20 ADD PUSH2 0xBF JUMP JUMPDEST PUSH1 0x1 SLOAD PUSH2 0x114 SWAP1 PUSH1 0x2 PUSH2 0x1B6 JUMP JUMPDEST PUSH1 0x1 DUP2 SWAP1 SSTORE PUSH1 0x40 MLOAD PUSH32 0xBFCE3A5A2A77B031B0A1CCAC19738DA9DEC550C09B2F06F20FB4952517AEF5BD SWAP1 PUSH1 0x0 SWAP1 LOG2 JUMP JUMPDEST PUSH1 0x1 DUP1 SLOAD SWAP1 PUSH1 0x0 PUSH2 0x154 DUP4 PUSH2 0x1CE JUMP JUMPDEST SWAP1 SWAP2 SSTORE POP POP PUSH1 0x1 SLOAD PUSH1 0x40 MLOAD PUSH32 0x395A766F999FE60FE2F05F4B28CAC630E02EE29E14A848B81A7FD5AE522BC5BE SWAP1 PUSH1 0x0 SWAP1 LOG2 JUMP JUMPDEST PUSH32 0x4E487B7100000000000000000000000000000000000000000000000000000000 PUSH1 0x0 MSTORE PUSH1 0x11 PUSH1 0x4 MSTORE PUSH1 0x24 PUSH1 0x0 REVERT JUMPDEST PUSH1 0x0 DUP3 NOT DUP3 GT ISZERO PUSH2 0x1C9 JUMPI PUSH2 0x1C9 PUSH2 0x187 JUMP JUMPDEST POP ADD SWAP1 JUMP JUMPDEST PUSH1 0x0 PUSH32 0xFFFFFFFFFFFFFFFFFFFFFFFFFFFFFFFFFFFFFFFFFFFFFFFFFFFFFFFFFFFFFFFF DUP3 SUB PUSH2 0x1FF JUMPI PUSH2 0x1FF PUSH2 0x187 JUMP JUMPDEST POP PUSH1 0x1 ADD SWAP1 JUMP INVALID LOG2 PUSH5 0x6970667358 0x22 SLT KECCAK256 0x29 DUP3 0x4D SHR LOG0 0xA5 0xB0 0xC1 0xCF SIGNEXTEND 0xE6 PUSH15 0x97CF90480CEF206D5EED642C1F48C ADD MOD 0xA7 PUSH14 0xA64736F6C634300080D00330000 "
        },
        "gasEstimates": {
          "creation": {
            "codeDepositCost": "114400",
            "executionCost": "infinite",
            "totalCost": "infinite"
          },
          "external": {
            "addOne()": "27699",
            "addTwo()": "25570",
            "factory()": "infinite",
            "i()": "2339",
            "owner()": "2302"
          }
        },
        "methodIdentifiers": {
          "addOne()": "6057d3ee",
          "addTwo()": "4d47524e",
          "factory()": "c45a0155",
          "i()": "e5aa3d58",
          "owner()": "8da5cb5b"
        }
      },
      "storageLayout": {
        "storage": [
          {
            "astId": 25,
            "contract": "test/contract-mocks/factory/MockEndPoint.sol:MockEndPoint",
            "label": "owner",
            "offset": 0,
            "slot": "0",
            "type": "t_address"
          },
          {
            "astId": 27,
            "contract": "test/contract-mocks/factory/MockEndPoint.sol:MockEndPoint",
            "label": "i",
            "offset": 0,
            "slot": "1",
            "type": "t_uint256"
          }
        ],
        "types": {
          "t_address": {
            "encoding": "inplace",
            "label": "address",
            "numberOfBytes": "20"
          },
          "t_uint256": {
            "encoding": "inplace",
            "label": "uint256",
            "numberOfBytes": "32"
          }
        }
      },
      "userdoc": {
        "kind": "user",
        "methods": {},
        "version": 1
      }
    }
  }
}